:10000000000006308A00572EFF00030E8301A10076
:100010000A08A0008A010408A2007708A300780853
:10002000A4007908A5007A08A60003170D08031399
:10003000A70003170F080313A80003170C080313E6
:10004000A90003170E080313AA00831383128B1D44
:100050002B280B1852288C308400801C31288C18D7
:100060005528220884002308F7002408F8002508F2
:10007000F9002608FA00270803178D000313280843
:1000800003178F000313290803178C0003132A0892
:1000900003178E00031320088A00210E8300FF0E31
:1000A0007F0E09008A110A12B42A8A110A127E28C8
:1000B0000A108A100A11820728340C3401340634DD
:1000C000D33A6E00CD376E00D43AE5390001D7320D
:1000D000730054347539730046396900D3307400A5
:1000E000BF1F3F0020002F002F1930000A003A00E8
:1000F0003A002010A024431050280000AC0A031935
:10010000AD0A8C108A110A123128013003179200AF
:100110000313031712083A3C0318902803138A2A82
:100120000313113003171202DD3E031C9928031339
:10013000862A233E03138D2AA0300317120784005A
:1001400083138008031DA6280313A9280313503026
:10015000B507862AA030031712078400831380088E
:10016000031DB4280313B72803132830B507862AC4
:10017000A03003171207840083138008031DC228D0
:100180000313C52803131430B507862AA0300317BC
:100190001207840083138008031DD0280313D3287B
:1001A00003130A30B507862AA0300317120784000C
:1001B00083138008031DDE280313E128031308308E
:1001C000B507862AA030031712078400831380081E
:1001D000031DEC280313EF2803130430B507862A08
:1001E000A03003171207840083138008031DFA2828
:1001F0000313FD2803130230B507862AA030031726
:100200001207840083138008031D082903130B2998
:1002100003130130B507862AA030031712078400A4
:1002200083138008031D16290313192903130A30A9
:10023000B607862AA03003171207840083138008AC
:10024000031D24290313272903130830B607862A20
:10025000A03003171207840083138008031D32297E
:100260000313352903130430B607862AA030031779
:100270001207840083138008031D402903134329B8
:1002800003130230B607862AA03003171207840032
:1002900083138008031D4E290313512903130130D2
:1002A000B607862AA030031712078400831380083C
:1002B000031D5C2903135F2903131430B707862A33
:1002C000A03003171207840083138008031D6A29D6
:1002D00003136D2903130A30B707862AA0300317CA
:1002E0001207840083138008031D782903137B29D8
:1002F00003130830B707862AA030031712078400BB
:1003000083138008031D86290313892903130430EE
:10031000B707862AA03003171207840083138008CA
:10032000031D94290313972903130230B707862A64
:10033000A03003171207840083138008031DA2292D
:100340000313A52903130130B707862AA03003172A
:100350001207840083138008031DB0290313B329F7
:1003600003130430B807862AA0300317120784004D
:1003700083138008031DBE290313C1290313023010
:10038000B807862AA0300317120784008313800859
:10039000031DCC290313CF2903130130B807862A84
:1003A000A03003171207840083138008031DDA2985
:1003B0000313DD2903131430B907862AA03003176D
:1003C0001207840083138008031DE8290313EB2917
:1003D00003130A30B907862AA030031712078400D6
:1003E00083138008031DF6290313F929031308302A
:1003F000B907862AA03003171207840083138008E8
:10040000031D042A0313072A03130430B907862A9D
:10041000A03003171207840083138008031D122ADB
:100420000313152A03130230B907862AA0300317D5
:100430001207840083138008031D202A0313232A34
:1004400003130130B907862AA0300317120784006E
:1004500083138008031D2E2A0313312A0313283027
:10046000BA07862AA0300317120784008313800876
:10047000031D3C2A03133F2A03131430BA07862AAC
:10048000A03003171207840083138008031D4A2A33
:1004900003134D2A03130A30BA07862AA030031724
:1004A0001207840083138008031D582A03135B2A54
:1004B00003130830BA07862AA030031712078400F6
:1004C00083138008031D662A0313692A031304306B
:1004D000BA07862AA0300317120784008313800806
:1004E000031D742A0313772A03130230BA07862ADE
:1004F000A03003171207840083138008031D822A8B
:100500000313852A03130130BA07862A0317920AB8
:10051000031389288A110A12782B0A108A140A11E7
:1005200082079C28AA28B828C628D428E228F028C0
:10053000FE280C291A2928293629442952296029FC
:100540006E297C298A299829A629B429C229D0296B
:10055000DE29EC29FA29082A162A242A322A402AD6
:100560004E2A5C2A6A2A782A8316EF01EE0183124A
:100570000317910190018316031306168312061ABE
:10058000C32A0910C42A09148316091006168312F7
:10059000061ACF2A2D08AF002C08AE00782B3108A0
:1005A000B3003008B2002D08B1002C08B0002E08AE
:1005B00030028316EE00831231088316EF00831297
:1005C0002F08031C2F0FE52AE82A8316EF02831257
:1005D00032082E020317900003132F08031791000F
:1005E00003133308031C330FF62AF92A0317910269
:1005F00003138316EF080319FF2A8312082B8312B3
:1006000083166E08063C031C072B83122C2B8312C7
:100610008316EF0803190E2B83122C2B83128316DB
:100620006E080D3C0318162B83122C2B8312031714
:10063000910803191D2B0313262B0313031710080E
:100640000F3C031C252B03132C2B0313A030340762
:10065000840083138001B40A8316EF080319322B38
:1006600083123B2B831283166E08103C031C3A2B1B
:100670008312602B83128316EF080319412B831218
:10068000602B831283166E08173C0318492B8312C4
:10069000602B8312031791080319502B0313592B56
:1006A0000313031710080F3C031C582B0313602B74
:1006B0000313A03034078400831301308000B40A90
:1006C0008316EF080319662B83126F2B8312831690
:1006D0006E082E3C031C6E2B8312782B8312013084
:1006E000B400B501B601B701B801B901BA01852856
:1006F0000B108A110A123128E63084008313000897
:100700000319902B0530F800F701F70B852BF80B38
:10071000842B2E30F700F70B8B2B8E2B800B822B2C
:10072000080083166D1C962B8312992B8312871257
:100730009A2B8716AB122B0883168700ED1CA22B71
:100740008312A52B83120711A62B07152B112B083B
:10075000831687006D1DAE2B8312B12B8312871079
:10076000B22B8714AB102B0883168700ED1DBA2B14
:100770008312BD2B83120710BE2B07142B102B08DE
:1007800083168700000083122B132B088316870023
:10079000831207170230F700F70BCC2B00002B1346
:1007A0002B0883168700831207130800AB132B084E
:1007B00083168700831287134F30F700F70BDE2B69
:1007C000E12B8316EA08031DE72B8312EF2B83121C
:1007D000AB132B088316870083128717F52BAB13F7
:1007E0002B08831687008312871300002B132B0816
:1007F000831687008312071383166B0EEC000F30ED
:10080000EC056C08ED008312912383166B080F39F9
:10081000EC006C08ED0083129123080083161F1072
:100820009F100030031785000030890000308600DB
:10083000003088004830F800780806388312031327
:100840009200FA308316920083129101C0308B041B
:10085000AB132B0883168700831287132B132B08E7
:1008600083168700831207130F308316E600831266
:100870007C238316DB01831283165B08023C03187A
:10088000432C8312522C831203308316ED00831203
:10089000912305308316E60083127C238316DB0A3E
:1008A00083123C2C02308316ED00831291238316B1
:1008B000DB01831283165B08033C0318612C83124F
:1008C000762C831283165B08831258208316DC0073
:1008D000EA015C08EB008312D62305308316E6009C
:1008E00083127C238316DB0A83125A2C8A110A1284
:1008F000802E831665080C3A83120319862C063A5B
:100900000319922C023A0319B72CBE2C8316EA0164
:100910000130EB008312D62302308316E6008312E7
:100920007C23C62C01308316E6000230E7008312D8
:100930008316670B9D2C9F2C83128312A12C83128C
:10094000A62C40308316E8008312A92C8316E801F8
:100950008312013083166602E80768088038E900D0
:10096000EA016908EB008312D6230000C62C831627
:10097000EA011030EB008312D623C62C0130831617
:10098000EA006508EB008312D623C62C08000B088A
:100990008316E20083128B13831603178C170C1433
:1009A000000000000313E21FD82C83128B1783165C
:1009B000831203170C087F39031DE02C03133C2D11
:1009C00083160313E200831203170D088316031323
:1009D000E300831203170F0883160313E400620871
:1009E000E5008312792483166308831203178D00B0
:1009F000831603136408831203178F0003130B0875
:100A00008316E50083128B13831603178C170C14BF
:100A1000000000000313E51F102D83128B178316AF
:100A2000831203170C0D0E0D7F39031D192D0313AF
:100A30003C2D83160313E200831203170D0883165F
:100A40000313E300831203170F0883160313E40054
:100A50006208E50083127924831663088312031762
:100A60008D00831603136408831203178F008D0A09
:100A700003198F0A0313C72C0800F801F901F701C5
:100A8000FA0183166C080319472D83124D2D6B084C
:100A9000031D4C2D8312752D831210308316ED002B
:100AA000831203108316E90DEA0DF70DFA0D6C0899
:100AB0007A0203195D2D8312602D6B087702831271
:100AC000031C6B2D83166B08F702031CFA036C08DA
:100AD000FA0203148312F80DF90D8316ED0B722D33
:100AE000742D83128312512D831208001030831647
:100AF000EB00F701FA0183128316E80CE70C0318E8
:100B0000832D83128A2D6908F7070318FA0A6A08E9
:100B1000FA078312FA0CF70CF90CF80C8316EB0B9E
:100B2000932D952D831283127C2D83120800F701DB
:100B3000F8018316690803106A18F707F70CF80C18
:100B4000EA18F707F70CF80C6A19F707F70CF80C16
:100B5000EA19F707F70CF80C6A1AF707F70CF80C04
:100B6000EA1AF707F70CF80C6A1BF707F70CF80CF2
:100B7000EA1BF707F70CF80C831208008316EA014A
:100B80006208E9000330EC00E830EB0083123D25F9
:100B900078088316E300E8016308E7000330EA0001
:100BA000E830E900831276257908FA007808831680
:100BB0006202E700E8017A08031C7A0FE80268087D
:100BC000EA006708E900EC016430EB0083123D2580
:100BD00078088316E400E8016308E7000330EA00C0
:100BE000E830E900831276257908FA007808831640
:100BF0006202E700E8017A08031C7A0FE802640841
:100C0000E9006430EA008312972578088316E7022A
:100C10000030031C0130E8026808EA006708E900B8
:100C2000EC010A30EB0083123D2578088316E500BD
:100C300030306507E7000130EA006708EB008312F7
:100C4000D6238316E8016308E7000330EA00E830A2
:100C5000E900831276257908FA0078088316620283
:100C6000E700E8017A08031C7A0FE8026408E9004B
:100C70006430EA008312972578088316E702003073
:100C8000031C0130E8026508E9000A30EA0083121B
:100C90009725780883166702E60030306607E7007C
:100CA0000130EA006708EB008312D623080003082E
:100CB0001F3983003030831690001008FF308312F4
:100CC000AB00AD01AC01AF01AE01B101B001B301A8
:100CD000B201B401B501B601B701B801B901BA0159
:100CE00083161F109F100030031785000030890005
:100CF00000308600003088008801831203130E2C18
:100D000014308316DB008312FA308316E600831258
:100D10007C238316DB0B8E2E902E83128312842E5F
:100D20008C1483128B1583161616831237088316BC
:100D3000DB00831236088316DC0083123508831625
:100D4000DD00831238088316DE008312390883160B
:100D5000DF0083123A088316E000831234088316FA
:100D6000E10083128316EA010130EB008312D623DF
:100D700002308316E60083127C23000083165E088F
:100D8000003A83120319D72E013A0319DF2E033AD2
:100D90000319E72E013A0319EF2E073A0319F72E2C
:100DA000013A0319FF2E033A0319072F0F2F603062
:100DB00003178D0000308F000313C724172F6230F4
:100DC00003178D0000308F000313C724172F6430E2
:100DD00003178D0000308F000313C724172F6730CF
:100DE00003178D0000308F000313C724172F6930BD
:100DF00003178D0000308F000313C724172F6C30AA
:100E000003178D0000308F000313C724172F6E3097
:100E100003178D0000308F000313C724172F703085
:100E200003178D0000308F000313C724172F723073
:100E300003178D0000308F000313C72483165B084F
:100E4000E2008312BE25733003178D0000308F003F
:100E50000313C72483165C08E2008312BE25743096
:100E600003178D0000308F000313C72483165D081D
:100E7000E2008312BE25763003178D0000308F000C
:100E80000313C72483165F08E2008312BE25773060
:100E900003178D0000308F000313C72483166008EA
:100EA000E2008312BE25783003178D0000308F00DA
:100EB0000313C72483166108E2008312BE2579302C
:100EC00003178D0000308F000313C7240000033088
:100ED0008316DB008312FA308316E60083127C232C
:100EE0008316DB0B752F772F831283126B2F8312E0
:040EF000962E792F92
:04400E00F51DFF3F5E
:00000001FF
;PIC16F727
;CRC=4B6B  CREATED="10-Mar-14 23:52"
