:10000000000008308A000028FF00030E8301A100D1
:100010000A08A0008A010408A2007708A300780853
:10002000A4007908A5007A08A60003170D08031399
:10003000A70003170F080313A80003170C080313E6
:10004000A90003170E080313AA00831383128B1D44
:100050002B280B1852288C308400801C31288C18D7
:100060005528220884002308F7002408F8002508F2
:10007000F9002608FA00270803178D000313280843
:1000800003178F000313290803178C0003132A0892
:1000900003178E00031320088A00210E8300FF0E31
:1000A0007F0E09008A110A12B12A8A110A127B28CE
:1000B0000A108A100A11820728340C3401340634DD
:1000C000D33A6E00CD376E00D43AE5390001D7320D
:1000D000730054347539730046396900D3307400A5
:1000E000BF1F3F0020002F002F1930000A003A00E8
:1000F0003A00A0150000AC0A0319AD0A8C108A1151
:100100000A12312801300317E500031303176508AD
:100110003A3C03188D280313872A03131130031761
:100120006502DD3E031C96280313832A233E031336
:100130008A2AA03003176507840083138008031DF3
:10014000A3280313A62803135030B507832AA03031
:1001500003176507840083138008031DB128031368
:10016000B42803132830B507832AA0300317650786
:10017000840083138008031DBF280313C2280313C0
:100180001430B507832AA030031765078400831352
:100190008008031DCD280313D02803130A30B507A8
:1001A000832AA03003176507840083138008031D8A
:1001B000DB280313DE2803130830B507832AA03099
:1001C00003176507840083138008031DE9280313C0
:1001D000EC2803130430B507832AA0300317650702
:1001E000840083138008031DF7280313FA280313E0
:1001F0000230B507832AA0300317650784008313F4
:100200008008031D05290313082903130130B507CE
:10021000832AA03003176507840083138008031D19
:1002200013290313162903130A30B607832AA030B3
:1002300003176507840083138008031D2129031316
:10024000242903130830B607832AA0300317650753
:10025000840083138008031D2F29031332290313FD
:100260000430B607832AA030031765078400831380
:100270008008031D3D290313402903130230B607EC
:10028000832AA03003176507840083138008031DA9
:100290004B2903134E2903130130B607832AA030DC
:1002A00003176507840083138008031D592903136E
:1002B0005C2903131430B707832AA030031765079E
:1002C000840083138008031D672903136A2903131D
:1002D0000A30B707832AA030031765078400831309
:1002E0008008031D75290313782903130830B70705
:1002F000832AA03003176507840083138008031D39
:1003000083290313862903130430B707832AA030F7
:1003100003176507840083138008031D91290313C5
:10032000942903130230B707832AA0300317650707
:10033000840083138008031D9F290313A22903133C
:100340000130B707832AA0300317650784008313A1
:100350008008031DAD290313B02903130430B80727
:10036000832AA03003176507840083138008031DC8
:10037000BB290313BE2903130230B807832AA03018
:1003800003176507840083138008031DC92903131D
:10039000CC2903130130B807832AA030031765075F
:1003A000840083138008031DD7290313DA2903135C
:1003B0001430B907832AA03003176507840083131C
:1003C0008008031DE5290313E82903130A30B90740
:1003D000832AA03003176507840083138008031D58
:1003E000F3290313F62903130830B907832AA03031
:1003F00003176507840083138008031D012A031374
:10040000042A03130430B907832AA03003176507B1
:10041000840083138008031D0F2A0313122A031379
:100420000230B907832AA0300317650784008313BD
:100430008008031D1D2A0313202A03130130B90766
:10044000832AA03003176507840083138008031DE7
:100450002B2A03132E2A03132830BA07832AA0302D
:1004600003176507840083138008031D392A0313CB
:100470003C2A03131430BA07832AA03003176507F8
:10048000840083138008031D472A03134A2A031399
:100490000A30BA07832AA030031765078400831344
:1004A0008008031D552A0313582A03130830BA077E
:1004B000832AA03003176507840083138008031D77
:1004C000632A0313662A03130430BA07832AA03071
:1004D00003176507840083138008031D712A031323
:1004E000742A03130230BA07832AA0300317650762
:1004F000840083138008031D7F2A0313822A0313B9
:100500000130BA07832A0317E50A031386288A11E4
:100510000A12BB2B0A108A140A1182079928A728ED
:10052000B528C328D128DF28ED28FB280929172959
:100530002529332941294F295D296B2979298729C3
:100540009529A329B129BF29CD29DB29E929F72933
:10055000052A132A212A2F2A3D2A4B2A592A672A9B
:10056000752A0317E201E101E401E3018316031395
:1005700006168312061ABE2A0910BF2A091483160A
:10058000091006168312061ACA2A2D08AF002C0875
:10059000AE00BB2B3108B3003008B2002D08B1000B
:1005A0002C08B0002E0830020317E10003133108B5
:1005B0000317E20003132F08031C2F0FE02AE32A7E
:1005C0000317E202031332082E020317E30003139A
:1005D0002F080317E40003133308031C330FF12A19
:1005E000F42A0317E40203130317E2080319FA2A93
:1005F0000313032B031303176108063C031C022B90
:1006000003132C2B03130317E2080319092B0313FD
:100610002C2B0313031761080D3C0318112B031334
:100620002C2B03130317E4080319182B0313212B96
:100630000313031763080F3C031C202B03132C2BFD
:100640000313A03034078400831380011030340773
:10065000840083178001B40A0317E2080319322BC0
:1006600003133B2B031303176108103C031C3A2BA5
:100670000313652B03130317E2080319412B03131C
:10068000652B031303176108173C0318492B031349
:10069000652B03130317E4080319502B0313592B7D
:1006A0000313031763080F3C031C582B0313652B1C
:1006B0000313A0303407840083130130800010300E
:1006C0003407840083178001B40A0317E208031972
:1006D0006B2B0313742B0313031761081A3C031CC1
:1006E000732B03139F2B03130317E20803197A2BB1
:1006F00003139F2B031303176108213C0318822B5C
:1007000003139F2B03130317E4080319892B031307
:10071000922B0313031763080F3C031C912B031345
:100720009F2B0313A0303407840083130130800013
:10073000103034078400831701308000B40A031797
:10074000E2080319A52B0313AE2B0313031761084B
:100750002E3C031CAD2B0313BB2B03130130B40041
:10076000B501B601B701B801B901BA0103174A08CA
:100770000313BB0082280B108A110A12312859304A
:100780008400831700080319D32B0530F800F70104
:10079000F70BC82BF80BC72B2E30F700F70BCE2B1F
:1007A000D12B800BC52B08000317601CD92B03131A
:1007B000DC2B03138712DD2B8716AB122B08831655
:1007C000870083120317E01CE72B0313EA2B0313A4
:1007D0000711EB2B07152B112B08831687008312AB
:1007E0000317601DF52B0313F82B03138710F92B48
:1007F0008714AB102B088316870083120317E01DA4
:10080000032C0313062C03130710072C07142B10BB
:100810002B0883168700000083122B132B088316E6
:100820008700831207170230F700F70B152C000022
:100830002B132B0883168700831207130800AB13B2
:100840002B0883168700831287134F30F700F70BAE
:10085000272C2A2C0317DD08031D302C0313382CFA
:100860000313AB132B0883168700831287173E2CC4
:10087000AB132B08831687008312871300002B13FA
:100880002B08831687008312071303175E0EDF0001
:100890000F30DF055F08E0000313D42303175E0861
:1008A0000F39DF005F08E0000313D423080083162C
:1008B0001F109F10003003178500003089000030A2
:1008C0008600003088004830F80078080638831227
:1008D00003139200FA308316920083129101C03004
:1008E0008B04AB132B0883168700831287132B13FB
:1008F0002B0883168700831207130F300317D900C4
:100900000313BF230317CD01031303174D08023C44
:1009100003188C2C03139B2C031303300317E000E4
:100920000313D42305300317D9000313BF23031780
:10093000CD0A0313852C02300317E0000313D423E0
:100940000317CD01031303174D08033C0318AA2C0A
:100950000313BF2C031303174D0803135820031769
:10096000CE00DD014E08DE0003131F2405300317FF
:10097000D9000313BF230317CD0A0313A32C8A1531
:100980000A122B28031758080C3A03130319CF2C0B
:10099000063A0319DB2C023A0319002D072D031721
:1009A000DD010130DE0003131F2402300317D900DC
:1009B0000313BF230F2D01300317D9000230DA00D3
:1009C000031303175A0BE62CE82C03130313EA2C2A
:1009D0000313EF2C40300317DB000313F22C031733
:1009E000DB010313013003175902DB075B08803872
:1009F000DC00DD015C08DE0003131F2400000F2D66
:100A00000317DD011030DE0003131F240F2D01300A
:100A10000317DD005808DE0003131F240F2D080004
:100A20000B080317D50003138B13831603178C17BA
:100A30000C14000000008312D51F212D03138B1707
:100A400003170C087F39031D272D0313612DD500D3
:100A50000D08D6000F08D7005508D8000313C2248C
:100A6000031756088D0057088F0003130B08031750
:100A7000D80003138B13831603178C170C14000074
:100A800000008312D81F472D03138B1703170C0D7B
:100A90000E0D7F39031D4E2D0313612DD5000D085A
:100AA000D6000F08D7005508D8000313C224031737
:100AB00056088D0057088F008D0A03198F0A0313FB
:100AC000102D0800F801F901F701FA0103175F087A
:100AD00003196C2D0313722D5E08031D712D031372
:100AE0009A2D031310300317E000031303100317AC
:100AF000DC0DDD0DF70DFA0D5F087A020319822D6A
:100B00000313852D5E0877020313031C902D031732
:100B10005E08F702031CFA035F08FA0203140313CA
:100B2000F80DF90D0317E00B972D992D03130313FF
:100B3000762D0313080010300317DE00F701FA01C9
:100B400003130317DB0CDA0C0318A82D0313AF2DC6
:100B50005C08F7070318FA0A5D08FA070313FA0C92
:100B6000F70CF90CF80C0317DE0BB82DBA2D031394
:100B70000313A12D03130800F701F80103175C0804
:100B800003105D18F707F70CF80CDD18F707F70CE2
:100B9000F80C5D19F707F70CF80CDD19F707F70CDF
:100BA000F80C5D1AF707F70CF80CDD1AF707F70CCD
:100BB000F80C5D1BF707F70CF80CDD1BF707F70CBB
:100BC000F80C031308000317DD015508DC0003309F
:100BD000DF00E830DE000313622578080317D60033
:100BE000DB015608DA000330DD00E830DC000313D7
:100BF0009B257908FA00780803175502DA00DB0113
:100C00007A08031C7A0FDB025B08DD005A08DC005F
:100C1000DF016430DE000313622578080317D70074
:100C2000DB015608DA000330DD00E830DC00031396
:100C30009B257908FA00780803175502DA00DB01D2
:100C40007A08031C7A0FDB025708DC006430DD00F1
:100C50000313BC2578080317DA020030031C0130A7
:100C6000DB025B08DD005A08DC00DF010A30DE0031
:100C70000313622578080317D80030305807DA00CC
:100C80000130DD005A08DE0003131F240317DB01C7
:100C90005608DA000330DD00E830DC0003139B2542
:100CA0007908FA00780803175502DA00DB017A08A0
:100CB000031C7A0FDB025708DC006430DD000313ED
:100CC000BC2578080317DA020030031C0130DB0270
:100CD0005808DC000A30DD000313BC257808031730
:100CE0005A02D90030305907DA000130DD005A08C5
:080CF000DE0003131F240800BD
:1010000003081F3983003030831690001008FF302A
:101010008312AB00AD01AC01AF01AE01B101B00173
:10102000B301B201B401B501B601B701B801B9010C
:10103000BA01BB0183161F109F10003003178500F3
:10104000003089000030860000308800880183125B
:1010500003138A11572C8A1514300317CD0003137C
:10106000FA300317D9008A110313BF238A15031717
:10107000CD0B3C283E28031303133028831603139B
:101080008C1483128B1583161616831237080317D8
:10109000CD00031336080317CE00031335080317DA
:1010A000CF00031338080317D000031339080317C0
:1010B000D10003133A080317D200031334080317AF
:1010C000D30003133B080317D40003130317DD01F8
:1010D0000130DE008A1103131F248A150230031722
:1010E000D9008A110313BF238A1500000317500883
:1010F000003A031303198F28013A03199928033A78
:101100000319A328013A0319AD28073A0319B72890
:10111000013A0319C128033A0319CB28D5286030B6
:1011200003178D0000308F008A11031310258A15D4
:10113000DF28623003178D0000308F008A110313FF
:1011400010258A15DF28643003178D0000308F00CA
:101150008A11031310258A15DF28673003178D00C5
:1011600000308F008A11031310258A15DF2869309B
:1011700003178D0000308F008A11031310258A1584
:10118000DF286C3003178D0000308F008A110313A5
:1011900010258A15DF286E3003178D0000308F0070
:1011A0008A11031310258A15DF28703003178D006C
:1011B00000308F008A11031310258A15DF28723042
:1011C00003178D0000308F008A11031310258A1534
:1011D00003174D08D5008A110313E3258A157330D0
:1011E00003178D0000308F008A11031310258A1514
:1011F00003174E08D5008A110313E3258A157430AE
:1012000003178D0000308F008A11031310258A15F3
:1012100003174F08D5008A110313E3258A1576308A
:1012200003178D0000308F008A11031310258A15D3
:1012300003175108D5008A110313E3258A15773067
:1012400003178D0000308F008A11031310258A15B3
:1012500003175208D5008A110313E3258A15783045
:1012600003178D0000308F008A11031310258A1593
:1012700003175308D5008A110313E3258A15793023
:1012800003178D0000308F008A11031310258A1573
:1012900003175408D50003130317DD015508DC00BC
:1012A0000330DF00E830DE008A11031362258A155F
:1012B00078080317D600DB015608DA000330DD009A
:1012C000E830DC008A1103139B258A157908FA009F
:1012D000780803175502DA00DB017A08031C7A0F3D
:1012E000DB025B08DD005A08DC00DF016430DE0051
:1012F0008A11031362258A1578080317D700DB01CA
:101300005608DA000330DD00E830DC008A110313F0
:101310009B258A157908FA00780803175502DA0028
:10132000DB017A08031C7A0FDB025708DC0064300B
:10133000DD008A110313BC258A1578080317DA0229
:101340000030031C0130DB025B08DD005A08DC00C2
:10135000DF010A30DE008A11031362258A1578083E
:101360000317D800DB015608DA000330DD00E8304F
:10137000DC008A1103139B258A157908FA00780886
:1013800003175502DA00DB017A08031C7A0FDB022F
:101390005708DC006430DD008A110313BC258A1570
:1013A00078080317DA020030031C0130DB0258080A
:1013B000DC000A30DD008A110313BC258A15780889
:1013C00003175A02D90030305907DA000130DD0026
:1013D0005A08DE008A1103131F248A15000000003A
:1013E00003300317CD000313FA300317D9008A1115
:1013F0000313BF238A150317CD0B002A022A0313F8
:0A1400000313F42903134628042AFD
:04400E00F51DFF3F5E
:00000001FF
;PIC16F727
;CRC=D89E  CREATED="11-Mar-14 22:44"
