:10000000000002308A00102AFF00030E8301A100C5
:100010000A08A0008A010408A2007708A300780853
:10002000A4007908A5007A08A600831383128C30F7
:100030008400801C1D288C182E2822088400230888
:10004000F7002408F8002508F9002608FA0020081F
:100050008A00210E8300FF0E7F0E09008A110A120A
:1000600039280A108A100A11820728340C34013406
:100070000634831606168312061A4228A80A0319A4
:10008000A90A4428A901A8018C108A110A121D2866
:100090002C3084008313000803195C280530F80015
:1000A000F701F70B5128F80B50282E30F700F70B0B
:1000B00057285A28800B4E280800341861288712C8
:1000C00062288716A7122708831687008312B418A0
:1000D0006B2807116C28071527112708831687003E
:1000E000831234197528871076288714A7102708DB
:1000F000831687008312B4197F28071080280714FD
:10010000271027088316870000008312271327086B
:1001100083168700831207170230F700F70B8E282B
:10012000000027132708831687008312071308008F
:10013000A713270883168700831287134F30F70011
:10014000F70BA028A328B1080319AD28A713270887
:100150008316870083128717B328A71327088316EF
:100160008700831287130000271327088316870050
:1001700083120713320EB3000F30B3053308B400F7
:100180005D2032080F39B3003308B4005D20080049
:1001900083161F109F100030031785000030890060
:1001A00000308600003088000030F80078080638FB
:1001B000831203139200FA30831692008312910186
:1001C000C0308B04A7132708831687008312871378
:1001D0002713270883168700831207130F30AC00FC
:1001E0004820AB012B08023C031CFE280330B4005E
:1001F0005D200530AC004820AB0AF2280230B40084
:100200005D20AB012B08033C031C12292B08312075
:10021000AC00B1012C08B20098200530AC00482099
:10022000AB0A02298A110A122D2AB1010130B2004B
:1002300098208A110A12562AF801F901F701FA01E9
:100240003508031D26293408031940291030B6004B
:100250000310B20DB30DF70DFA0D35087A02031D28
:10026000332934087702031C3C293408F702031CA5
:10027000FA033508FA020314F80DF90DB60B282914
:1002800008001030B400F701FA01B10CB00C031CE7
:100290004F293208F7070318FA0A3308FA07FA0C4D
:1002A000F70CF90CF80CB40B45290800F701F8011C
:1002B000320803103318F707F70CF80CB318F707D8
:1002C000F70CF80C3319F707F70CF80CB319F7070C
:1002D000F70CF80C331AF707F70CF80CB31AF707FA
:1002E000F70CF80C331BF707F70CF80CB31BF707E8
:1002F000F70CF80C0800B3012B08B2000330B5006E
:10030000E830B4001C217808AC0030302C07B00075
:100310000130B1003008B2009820B1012C08B000C3
:100320000330B300E830B20041217908FA007808C0
:100330002B02B000B1017A08031C7A0FB102310818
:10034000B3003008B200B5016430B4001C21780855
:10035000AD0030302D07B0000130B1003008B200E0
:100360009820B1012C08B0000330B300E830B2008F
:1003700041217908FA0078082B02B000B1017A080F
:10038000031C7A0FB1022D08B2006430B30056216D
:100390007808B0020030031C0130B1023108B3000C
:1003A0003008B200B5010A30B4001C217808AE0054
:1003B00030302E07B0000130B1003008B200982074
:1003C000B1012C08B0000330B300E830B200412185
:1003D0007908FA0078082B02B000B1017A08031CF2
:1003E0007A0FB1022D08B2006430B30056217808AC
:1003F000B0020030031C0130B1022E08B2000A30F6
:10040000B300562178083002AF0030302F07B0001B
:100410000130B1003008B20098208A110A12592A1E
:1004200003081F3983003030831690001008FF3016
:100430008312A700A901A801AA0183161F109F100B
:10044000003003178500003089000030860000303E
:100450008800880183120313C8281430AB00FA30D7
:10046000AC004820AB0B2F2A83168C148312831602
:1004700006168312061E452A8910831689108312D8
:1004800009148316091083124D2A091083160910C6
:10049000831289148316891083122808F43C031DE3
:1004A000592A290B592A0130AA0715292A08AB0015
:0604B0007B29372A5A2ABD
:04400E00F51DFF3F5E
:00000001FF
;PIC16F727
;CRC=FDA6  CREATED="19-Feb-14 22:36"
