:020000040000FA
:040000005EEF03F0BC
:08000800056ED8CF06F0E950A7
:10001000076EEA50086EE150096EE2500A6ED95040
:100020000B6EDA500C6EF350146EF450156EFA50DD
:10003000166EE0500D6E000100500F6E0150106EF4
:100040000250116E0350126E0450136E9DA22CEFDD
:1000500000F09EB219EF01F00F50006E1050016ECB
:100060001150026E1250036E1350046E0D50E06E6C
:100070000D8E0750E96E0850EA6E0950E16E0A5085
:10008000E26E0B50D96E0C50DA6E1450F36E1550B0
:10009000F46E1650FA6E055006C0D8FF1000F2CF6D
:1000A0000EF0F29EF76AB80FF66E000EF722090006
:1000B000F5500EBEF28E1200494E464F3A2057526E
:1000C0004954494E4720544F204D454D4F52590AEF
:1000D0000D00F2CF0EF0F29EF76AEC0FF66E000EF6
:1000E000F7220900F5500EBEF28E1200494E464F1F
:1000F0003A2052454144494E472046524F4D204DEB
:10010000454D4F52590A0D00F2CF0EF0F29EF76A9C
:10011000220FF66E010EF7220900F5500EBEF28E88
:1001200012004552524F523A20424144205245411A
:10013000442046524F4D20282825752C25752C2506
:1001400075290A0D0000F2CF0EF0F29EF76A600FDB
:10015000F66E010EF7220900F5500EBEF28E120067
:10016000494E464F3A204D454D434845434B204666
:10017000494E49534845440A0D002D50016A2C5CF4
:10018000D8B0C7EF00F02C50006ED4EF00F0006A3A
:10019000080E2E6E2C3600362D50005CD8B0006E46
:1001A00001362E2ECAEF00F0000C01502AC02CF0B0
:1001B000640E2D6EBDEC00F000C02AF00150300E30
:1001C000D8A4EDEF00F02BA2F6EF00F02BB6F6EF7F
:1001D00000F02BB8200EF0EF00F02B962B982B8020
:1001E000012601509EA8F2EF00F0AD6E2AC02CF05F
:1001F0000A0E2D6EBDEC00F000C02AF00150300E4A
:10020000D8A40BEF01F02BB611EF01F02BA011EFEA
:1002100001F02BB8200E012601509EA80DEF01F031
:10022000AD6E300E2A262A509EA814EF01F0AD6E56
:10023000000C1A3C20EF01F01A6A1B2A21EF01F092
:100240001A2A1B3C28EF01F01A6A1B6A010E196E6C
:100250001C52D8A45EEF01F0570E9EA82DEF01F0BE
:10026000AD6E200E9EA832EF01F0AD6E19C02AF0DF
:100270001B0E2B6ED5EC00F0200E9EA83DEF01F07A
:10028000AD6E1BC02AF01B0E2B6ED5EC00F0200EBD
:100290009EA848EF01F0AD6E1AC02AF01B0E2B6E1F
:1002A000D5EC00F00A0E9EA853EF01F0AD6E0D0ED6
:1002B0009EA858EF01F0AD6E8EEF01F0520E9EA891
:1002C0005FEF01F0AD6E200E9EA864EF01F0AD6E01
:1002D00019C02AF01B0E2B6ED5EC00F0200E9EA844
:1002E0006FEF01F0AD6E1BC02AF01B0E2B6ED5EC2C
:1002F00000F0200E9EA87AEF01F0AD6E1AC02AF031
:100300001B0E2B6ED5EC00F00A0E9EA885EF01F0B7
:10031000AD6E0D0E9EA88AEF01F0AD6E9E922CEF91
:1003200000F0C050C00B0709C06EC08EC280C15023
:10033000C00B0D09C16EC69A949A94889496210EAA
:10034000C66E000EC76E300EC66E400EC76E7FEFD3
:1003500003F0206A89889298898A929A8994929463
:1003600089969296936A20C08AFF89849294899490
:100370009294898692968996929681EF03F0EA6A22
:10038000210EE96EEF50D8B4D3EF01F0060E016EE6
:10039000006A002EFED7012EFBD77B0E006E002ECA
:1003A000FED7EF2EF3D797EF03F0936A27C08AFFAB
:1003B0008984929489949294936A26C08AFF89864C
:1003C0009296899692962552D8A4EAEF01F08B90E6
:1003D000EBEF01F08B809490936A28C08AFF899A92
:1003E000929A898A929A000C276A936A26C08AFF99
:1003F0008984929489949294936A25C08AFF89860D
:100400009296899692962452D8A40AEF02F08B9085
:100410000BEF02F08B80949089989298FF0E936E68
:1004200081CF27F0898892982750016E8DEF02F0D6
:10043000246A24504FEC00F0242A006E00509EA83D
:100440001FEF02F0AD6E190E245CD8A419EF02F074
:10045000206A20500108D8A063EF02F0216A213CF5
:1004600034EF02F060EF02F0226A223C3AEF02F031
:100470005DEF02F02250010B000AD8A44CEF02F00D
:1004800020C025F021C026F022C027F022C028F08D
:10049000D5EC01F05AEF02F0FF0ED8802254246E02
:1004A00020C025F021C026F022C027F024C028F06B
:1004B000D5EC01F0222A35EF02F0212A2FEF02F0CD
:1004C000202A29EF02F0246A245069EC00F0242A43
:1004D000006E00509EA86AEF02F0AD6E1B0E245C09
:1004E000D8A464EF02F0206A20500108D8A04CEF95
:1004F00003F0216A213C7FEF02F049EF03F0226A0A
:10050000223C85EF02F046EF03F020C024F021C02A
:1005100025F022C026F0F4EF01F001C023F02250B4
:10052000010B000AD8A4E9EF02F02250235CD8B4F2
:10053000E9EF02F0246A245084EC00F0242A006ED3
:1005400000509EA8A1EF02F0AD6E170E245CD8A457
:100550009BEF02F0186AF2BE188EF29E20C02AF0BD
:100560001B0E2B6ED5EC00F018BEF28E2C0E9EA842
:10057000B7EF02F0AD6E186AF2BE188EF29E21C07F
:100580002AF01B0E2B6ED5EC00F018BEF28E2C0E4E
:100590009EA8C8EF02F0AD6E186AF2BE188EF29EE9
:1005A00022C02AF01B0E2B6ED5EC00F018BEF28E86
:1005B000290E9EA8D9EF02F0AD6E0A0E9EA8DEEFBE
:1005C00002F0AD6E0D0E9EA8E3EF02F0AD6E43EFAC
:1005D00003F02250010B0108D8A443EF03F0FF0EF3
:1005E000D8802254235CD8B443EF03F0246A24500B
:1005F00084EC00F0242A006E00509EA8FDEF02F06B
:10060000AD6E170E245CD8A4F7EF02F0186AF2BEA4
:10061000188EF29E20C02AF01B0E2B6ED5EC00F037
:1006200018BEF28E2C0E9EA813EF03F0AD6E186A62
:10063000F2BE188EF29E21C02AF01B0E2B6ED5EC56
:1006400000F018BEF28E2C0E9EA824EF03F0AD6EC3
:10065000186AF2BE188EF29E22C02AF01B0E2B6E74
:10066000D5EC00F018BEF28E290E9EA835EF03F0EF
:10067000AD6E0A0E9EA83AEF03F0AD6E0D0E9EA869
:100680003FEF03F0AD6E222A80EF02F0212A7AEFCD
:1006900002F0202A74EF02F0246A2450A3EC00F048
:1006A000242A006E00509EA853EF03F0AD6E190E81
:1006B000245CD8A44DEF03F09BEF03F0F86AD09EC2
:1006C0000D8EEA6AE96AC150C00B0F09C16E070EB0
:1006D000B46E9250926EB450A19CB8862A0EAF6E42
:1006E000000EB06E260EAC6E900EAB6E196A1A6AD2
:1006F0001B6A1C6A1D6A1E6A1F6A91EF01F0A9EF4E
:1007000001F0040E016EC250C30B0110C26E080E40
:10071000016E01500409CA6EFA0ECB6ECC6AC00E8F
:10072000F212140E206EFA0E216EBFEF01F0202E91
:10073000FAD718EF02F09482000E82B2010E000A7E
:10074000D8A4A9EF03F01D52D8A4A9EF03F0010E1D
:100750001D6E9482000E82B2010E0108D8A4BEEF75
:1007600003F01D2CBEEF03F01D6A1E52D8A4BCEF8F
:1007700003F0010EBDEF03F0000E1E6E1E52D8B442
:10078000C5EF03F09D82C7EF03F09D921C6A9BEFBB
:0407900003F003006F
:020000040030CA
:0E0000000002191E008181000FC00FE00F40AA
:00000001FF
;PIC18F2420
