:020000040000FA
:040000007DEF03F09D
:08000800056ED8CF06F0E950A7
:10001000076EEA50086EE150096EE2500A6ED95040
:100020000B6EDA500C6EF350146EF450156EFA50DD
:10003000166EE0500D6E000100500F6E0150106EF4
:100040000250116E0350126E0450136E9DA22CEFDD
:1000500000F09EB238EF01F00F50006E1050016EAC
:100060001150026E1250036E1350046E0D50E06E6C
:100070000D8E0750E96E0850EA6E0950E16E0A5085
:10008000E26E0B50D96E0C50DA6E1450F36E1550B0
:10009000F46E1650FA6E055006C0D8FF1000F2CF6D
:1000A0000EF0F29EF76AB80FF66E000EF722090006
:1000B000F5500EBEF28E1200494E464F3A2057526E
:1000C0004954494E4720544F204D454D4F52590AEF
:1000D0000D00F2CF0EF0F29EF76AEC0FF66E000EF6
:1000E000F7220900F5500EBEF28E1200494E464F1F
:1000F0003A2052454144494E472046524F4D204DEB
:10010000454D4F52590A0D00F2CF0EF0F29EF76A9C
:10011000220FF66E010EF7220900F5500EBEF28E88
:1001200012004552524F523A20424144205245411A
:10013000442046524F4D20282825752C25752C2506
:1001400075290A0D0000F2CF0EF0F29EF76A600FDB
:10015000F66E010EF7220900F5500EBEF28E120067
:10016000494E464F3A204D454D434845434B204666
:10017000494E49534845440A0D00296A2738006E04
:100180000F0E001600504009286E2738006EF00E42
:1001900000160050296E8B949494C95028C0C9FF52
:1001A000C7A0D0EF00F0C95029C0C9FFC7A0D6EF43
:1001B00000F08B849494000C2D50016A2C5CD8B014
:1001C000E6EF00F02C50006EF3EF00F0006A080E2E
:1001D0002E6E2C3600362D50005CD8B0006E0136E5
:1001E0002E2EE9EF00F0000C01502AC02CF0640E16
:1001F0002D6EDCEC00F000C02AF00150300ED8A4C7
:100200000CEF01F02BA215EF01F02BB615EF01F06A
:100210002BB8200E0FEF01F02B962B982B80012688
:1002200001509EA811EF01F0AD6E2AC02CF00A0E0D
:100230002D6EDCEC00F000C02AF00150300ED8A486
:100240002AEF01F02BB630EF01F02BA030EF01F0D8
:100250002BB8200E012601509EA82CEF01F0AD6EA8
:10026000300E2A262A509EA833EF01F0AD6E000C06
:100270001A52D8A473EF01F019C027F0BDEC00F0BA
:10028000192A193C4DEF01F01A52D8A44BEF01F096
:10029000010E4CEF01F0000E1A6EC282C2B24EEF98
:1002A00001F0C4CF03F0C350276E03C028F02830FC
:1002B000036E2730026E033202323F0E03160250E5
:1002C000296E29C02AF01B0E2B6EF4EC00F00A0EEA
:1002D0009EA868EF01F0AD6E0D0E9EA86DEF01F0C7
:1002E000AD6EADEF01F01A52D8B4ADEF01F019C008
:1002F00027F0BDEC00F019061952D8A489EF01F0DF
:100300001A52D8A487EF01F0010E88EF01F0000E19
:100310001A6EC282C2B28AEF01F0C4CF03F0C3509A
:10032000276E03C028F02830036E2730026E033298
:1003300002323F0E03160250296E29C02AF01B0E0E
:100340002B6EF4EC00F00A0E9EA8A4EF01F0AD6E47
:100350000D0E9EA8A9EF01F0AD6E9E922CEF00F05D
:10036000C050C00B0709C06EC08EC280C150C00B08
:100370000D09C16EC69A949A94889496210EC66E01
:10038000000EC76E300EC66E400EC76E9BEF03F0B8
:100390001D6A89889298898A929A899492948996FA
:1003A0009296936A1DC08AFF89849294899492944C
:1003B00089869296899692969DEF03F0EA6A1E0EC0
:1003C000E96EEF50D8B4F2EF01F0060E016E006A4C
:1003D000002EFED7012EFBD77B0E006E002EFED71F
:1003E000EF2EF3D7B3EF03F0936A24C08AFF89841A
:1003F000929489949294936A23C08AFF89869296F4
:10040000899692962252D8A409EF02F08B900AEFB7
:1004100002F08B809490936A25C08AFF899A929A01
:10042000898A929A000C246A936A23C08AFF89847D
:10043000929489949294936A22C08AFF89869296B4
:10044000899692962152D8A429EF02F08B902AEF38
:1004500002F08B80949089989298FF0E936E81CFD2
:1004600024F0898892982450016EACEF02F0216A42
:1004700021504FEC00F0212A006E00509EA83EEF64
:1004800002F0AD6E190E215CD8A438EF02F01D6A9F
:100490001D500108D8A082EF02F01E6A1E3C53EFE7
:1004A00002F07FEF02F01F6A1F3C59EF02F07CEF71
:1004B00002F01F50010B000AD8A46BEF02F01DC020
:1004C00022F01EC023F01FC024F01FC025F0F4EC62
:1004D00001F079EF02F0FF0ED8801F54216E1DC08D
:1004E00022F01EC023F01FC024F021C025F0F4EC40
:1004F00001F01F2A54EF02F01E2A4EEF02F01D2ACF
:1005000048EF02F0216A215069EC00F0212A006EC8
:1005100000509EA889EF02F0AD6E1B0E215CD8A49E
:1005200083EF02F01D6A1D500108D8A06BEF03F0A5
:100530001E6A1E3C9EEF02F068EF03F01F6A1F3C2C
:10054000A4EF02F065EF03F01DC021F01EC022F001
:100550001FC023F013EF02F001C020F01F50010B69
:10056000000AD8A408EF03F01F50205CD8B408EFAD
:1005700003F0216A215084EC00F0212A006E005023
:100580009EA8C0EF02F0AD6E170E215CD8A4BAEFA2
:1005900002F0186AF2BE188EF29E1DC02AF01B0EE1
:1005A0002B6EF4EC00F018BEF28E2C0E9EA8D6EF47
:1005B00002F0AD6E186AF2BE188EF29E1EC02AF0CE
:1005C0001B0E2B6EF4EC00F018BEF28E2C0E9EA8C3
:1005D000E7EF02F0AD6E186AF2BE188EF29E1FC0F1
:1005E0002AF01B0E2B6EF4EC00F018BEF28E290ED2
:1005F0009EA8F8EF02F0AD6E0A0E9EA8FDEF02F085
:10060000AD6E0D0E9EA802EF03F0AD6E62EF03F02B
:100610001F50010B0108D8A462EF03F0FF0ED88031
:100620001F54205CD8B462EF03F0216A215084EC9F
:1006300000F0212A006E00509EA81CEF03F0AD6E62
:10064000170E215CD8A416EF03F0186AF2BE188EBC
:10065000F29E1DC02AF01B0E2B6EF4EC00F018BEAB
:10066000F28E2C0E9EA832EF03F0AD6E186AF2BE29
:10067000188EF29E1EC02AF01B0E2B6EF4EC00F0BA
:1006800018BEF28E2C0E9EA843EF03F0AD6E186AD2
:10069000F2BE188EF29E1FC02AF01B0E2B6EF4ECD9
:1006A00000F018BEF28E290E9EA854EF03F0AD6E36
:1006B0000A0E9EA859EF03F0AD6E0D0E9EA85EEFD8
:1006C00003F0AD6E1F2A9FEF02F01E2A99EF02F091
:1006D0001D2A93EF02F0216A2150A3EC00F0212A99
:1006E000006E00509EA872EF03F0AD6E190E215CF3
:1006F000D8A46CEF03F0B7EF03F0F86AD09E0D8E2C
:10070000EA6AE96AC150C00B0F09C16E070EB46EE8
:100710009250926EB450A19CB8862A0EAF6E000E15
:10072000B06E260EAC6E900EAB6E196A1A6A1B6A1A
:100730001C6AB0EF01F0C8EF01F0040E016EC25068
:10074000C30B0110C26E080E016E01500509CA6E7E
:10075000FA0ECB6ECC6AC00EF212140E1D6EFA0E9B
:100760001E6EDEEF01F01D2EFAD737EF02F09482F5
:10077000000E82B2010E000AD8A4C5EF03F01B528E
:10078000D8A4C5EF03F0010E1B6E9482000E82B256
:10079000010E0108D8A4E2EF03F01B2CE2EF03F0F6
:1007A0001B6A1C52D8A4D8EF03F0010ED9EF03F056
:1007B000000E1C6E1C52D8B4E1EF03F09D82E2EFF4
:0A07C00003F09D92B7EF03F0030071
:020000040030CA
:0E0000000002191E008181000FC00FE00F40AA
:00000001FF
;PIC18F2420
