:020000040000FA
:1000000042EF03F0F76A140FF66E000EF7220900B4
:10001000F5501200494E464F3A2057524954494E26
:100020004720544F204D454D4F52590A0D00F76A55
:100030003E0FF66E000EF7220900F5501200494EF1
:10004000464F3A2052454144494E472046524F4D73
:10005000204D454D4F52590A0D00F76A6A0FF66E52
:10006000000EF7220900F55012004552524F523A45
:100070002042414420524541442046524F4D2028C1
:100080002825752C25752C2575290A0D0000F76A81
:100090009E0FF66E000EF7220900F5501200494E31
:1000A000464F3A204D454D434845434B2046494E27
:1000B00049534845440A0D00F76AC80FF66E000E12
:1000C000F7220900F55012005374617274696E676B
:1000D000205265636F72640A0D00F76AEA0FF66ECC
:1000E000000EF7220900F550120046696E73696828
:1000F0006564205265636F72640A0D00C050C00BC6
:100100000709C06EC09EC280C150C00B0D09C16EF0
:10011000C69A949A94889496210EC66E000EC76E65
:10012000300EC66E400EC76E5DEF03F0086A898818
:100130009298898A929A8994929489969296936ACF
:1001400008C08AFF898492948994929489869296B1
:10015000899692965FEF03F0EA6A090EE96EEF5016
:10016000D8B4C0EF00F0060E016E006A002EFED774
:10017000012EFBD77B0E006E002EFED7EF2EF3D79D
:1001800065EF03F0936A0FC08AFF89849294899483
:100190009294936A0EC08AFF898692968996929667
:1001A0000D52D8A4D7EF00F08B90D8EF00F08B80E1
:1001B0009490936A10C08AFF899A929A898A929A37
:1001C000000C0F6A936A0EC08AFF89849294899406
:1001D0009294936A0DC08AFF898692968996929628
:1001E0000C52D8A4F7EF00F08B90F8EF00F08B8062
:1001F000949089989298FF0E936E81CF0FF0898822
:1002000092980F50016E000C1050016A0F5CD8B02C
:100210000EEF01F00F50006E1BEF01F0006A080EA8
:10022000116E0F3600361050005CD8B0006E0136EB
:10023000112E11EF01F0000C01500DC00FF0640EF3
:10024000106E04EC01F000C00DF00150300ED8A487
:1002500034EF01F00EA23DEF01F00EB63DEF01F0DC
:100260000EB8200E37EF01F00E960E980E80012684
:1002700001509EA839EF01F0AD6E0DC00FF00A0ECF
:10028000106E04EC01F000C00DF00150300ED8A447
:1002900052EF01F00EB658EF01F00EA058EF01F04A
:1002A0000EB8200E012601509EA854EF01F0AD6E4D
:1002B000300E0D260D509EA85BEF01F0AD6E000CC8
:1002C0000C6A0C5002EC00F00C2A006E00509EA844
:1002D00067EF01F0AD6E190E0C5CD8A461EF01F070
:1002E000086A08500108D8A0ABEF01F0096A093C80
:1002F0007CEF01F0A8EF01F00A6A0A3C82EF01F0FE
:10030000A5EF01F00A50010B000AD8A494EF01F008
:1003100008C00DF009C00EF00AC00FF00AC010F0BE
:10032000C2EC00F0A2EF01F0FF0ED8800A540C6E70
:1003300008C00DF009C00EF00AC00FF00CC010F09C
:10034000C2EC00F00A2A7DEF01F0092A77EF01F0F4
:10035000082A71EF01F00C6A0C5017EC00F00C2A1F
:10036000006E00509EA8B2EF01F0AD6E1B0E0C5C4B
:10037000D8A4ACEF01F0086A08500108D8A070EFCB
:1003800002F0096A093CC7EF01F06DEF02F00A6A5A
:100390000A3CCDEF01F06AEF02F008C00CF009C092
:1003A0000DF00AC00EF0E1EC00F001C00BF00A50B5
:1003B000010B000AD8A41FEF02F00A500B5CD8B45E
:1003C0001FEF02F00C6A0C502DEC00F00C2A006EAE
:1003D00000509EA8E9EF01F0AD6E170E0C5CD8A49A
:1003E000E3EF01F008C00DF01B0E0E6E1CEC01F0E7
:1003F0002C0E9EA8F9EF01F0AD6E09C00DF01B0E9A
:100400000E6E1CEC01F02C0E9EA804EF02F0AD6EF7
:100410000AC00DF01B0E0E6E1CEC01F0290E9EA8FA
:100420000FEF02F0AD6E0A0E9EA814EF02F0AD6E53
:100430000D0E9EA819EF02F0AD6E67EF02F00A50A4
:10044000010B0108D8A467EF02F0FF0ED8800A5410
:100450000B5CD8B467EF02F00C6A0C502DEC00F086
:100460000C2A006E00509EA833EF02F0AD6E170EFE
:100470000C5CD8A42DEF02F008C00DF01B0E0E6E20
:100480001CEC01F02C0E9EA843EF02F0AD6E09C0EB
:100490000DF01B0E0E6E1CEC01F02C0E9EA84EEF04
:1004A00002F0AD6E0AC00DF01B0E0E6E1CEC01F0DA
:1004B000290E9EA859EF02F0AD6E0A0E9EA85EEFBF
:1004C00002F0AD6E0D0E9EA863EF02F0AD6E0A2A2B
:1004D000C8EF01F0092AC2EF01F0082ABCEF01F0D1
:1004E0000C6A0C5047EC00F00C2A006E00509EA8DD
:1004F00077EF02F0AD6E190E0C5CD8A471EF02F02C
:1005000069EF03F0096A0A6A0A505CEC00F00A2AF3
:10051000006E00509EA88AEF02F0AD6E110E0A5CCC
:10052000D8A484EF02F0086A083C99EF02F0DCEFEF
:1005300002F0096A093C9FEF02F0D9EF02F0040EC5
:10054000016EC250C30B0110C26E040E006E002E6D
:10055000FED700000000C282C2B2ACEF02F0C4506D
:100560000A6E0D6A08C00EF009C00FF00AC010F044
:10057000C2EC00F0000E016EC250C30B0110C26E3F
:10058000040E006E002EFED700000000C282C2B230
:10059000C7EF02F0C4500A6E010E0D6E08C00EF0D7
:1005A00009C00FF00AC010F0C2EC00F0092A9AEF5F
:1005B00002F0082A94EF02F00A6A0A506DEC00F08B
:1005C0000A2A006E00509EA8E3EF02F0AD6E110EF5
:1005D0000A5CD8A4DDEF02F092EF03F00D6A0B384D
:1005E000006E0F0E0016005040090C6E0B38006EA6
:1005F000F00E001600500D6E8B949494C9500CC0F0
:10060000C9FFC7A001EF03F0C9500DC0C9FFC7A0C3
:1006100007EF03F08B849494000C096A086A083C85
:1006200014EF03F040EF03F0096A093C1AEF03F0FE
:100630003DEF03F00C6A08C00DF009C00EF0E1ECCC
:1006400000F001C00AF00AC00BF0EEEC02F0010E5F
:100650000C6E08C00DF009C00EF0E1EC00F001C016
:100660000AF00AC00BF0EEEC02F0100E006E002E45
:10067000FED70000092A15EF03F0082A0FEF03F058
:1006800094EF03F0F86AD09EEA6AE96AC150C00BA1
:100690000F09C16E070EB46E9250926EB450A19CB9
:1006A000B8862A0EAF6E000EB06E260EAC6E900E9F
:1006B000AB6E066A076A7EEF00F096EF00F0140E4C
:1006C000086EFA0E096EACEF00F0082EFAD760EF54
:1006D00001F09482000E82B2010E000AD8A477EFD6
:1006E00003F00652D8A477EF03F0010E066E948251
:1006F000000E82B2010E0108D8A48CEF03F0062C84
:100700008CEF03F0066A0752D8A48AEF03F0010EBB
:100710008BEF03F0000E076E0752D8B495EF03F08D
:1007200082EF02F00DEF03F0076A69EF03F00300B8
:020000040030CA
:0E0000000002191E008181000FC00FE00F40AA
:00000001FF
;PIC18F2420
